:080000008E1304000000000053
:04002800AC0900001F
:040054006A0200003C
:040078006E0A00000C
:100400003220EF00C3202000008041001040BA00DD
:100410000160EF00000006004D610000696E000001
:100420000D0A000000000000851F78007E88BF00D4
:100430001080B200030032003080B20011003200A0
:100440002200370074468000A4C3B20005003A00C1
:100450008008A8007428EF0024002000F4438800DE
:10046000060037007446800014C2B20003003A0050
:100470008008A90024002000F44388007428EF00BD
:10048000120037007446800034C2B20008003A00FF
:1004900004862000A343800084824100804AEB0050
:1004A0008028A80014002000F443880006003700CC
:1004B00004862000A343800084824100CE88BF00D0
:1004C000804298007428EC0000003700CF027800CA
:1004D000000006004200F8003600F8003200F80084
:1004E000801F7800200020000C000900B01F780059
:1004F0002202AE00FEFF370030118000CCE8B700CA
:10050000CCC8BF00CEE8B700140202000000000013
:100510008560A900A00120000C0009004F107800A0
:100520004F0078003200F9003600F9004200F9006F
:1005300000400600851F7800C50020000300090068
:10054000B51F78000002780081027800020378006D
:10055000830378000000EB008000EB000001EB005B
:100560008001EB000800A10007F0A600050037009D
:100570000800A0000402EA008582EA000683EA007F
:100580008783EA008504720002003A008704730042
:1005900015003200394720000340A7000B00370048
:1005A0004200A9000482D2008582D2000683D200D4
:1005B0008783D2000080D2008180D2000281D200E5
:1005C0008381D2008904E900F3FF3A00C44CDD00C6
:1005D0004200A90009F0A1000340A10083816C0042
:1005E0000800A70003F0A000250120000300090077
:1005F000CF127800CF02780000000600881F780034
:100600002801200004000900B81F78008005EB00D5
:100610006066B8000304780087047800FA7F200041
:100620004200A9004220A90044C4DE00080465007D
:100630000800E000710032004200A9004220A90039
:10064000C4CCDE00890465000900E0006B003200C4
:100650000884440009B0A70004003700F83FB10047
:100660006600320065003900030037001A402000A0
:100670008542450061003100878669004200A9007B
:100680004220A900F300B2000340A000F700B2002E
:100690000740A000881F78000124B800002DB80092
:1006A0000A0544008B854C000C80B0000224B80081
:1006B0008B0544000C864C00012CB8000005EB00B3
:1006C0008B0544000C864C000A80B0000034B80052
:1006D0008B0544000C864C000A80B0008005EB00BE
:1006E0000324B8000C0644000A854C000B80B000BF
:1006F000022CB8000C0644000A854C000B80B000A8
:100700000134B8000C0644000A854C000B80B00090
:10071000003CB8000C0644000A854C000B80B00079
:100720000C0078000006EB00032CB8000A0544001A
:100730008B854C000C80B0000234B8000A054400E0
:100740008B854C000C80B0000334B8008B0544004E
:100750000C864C00013CB8000A0544008B854C0017
:100760000C80B000023CB8008B0544000C864C00A5
:10077000033CB8000C0644008A0078000B017800A6
:100780008C017800540020004200A9008381D3002E
:100790000281D3008180D3000080D3000402E900ED
:1007A000F9FF3A004F0478000804E80001037000E4
:1007B000010032000200370003037100080032001C
:1007C0000340A700060037004200A9000080D200C5
:1007D0008180D2000281D2008381D2000804E90026
:1007E0004444DD0003F0A1000DF0A70003F0A000D9
:1007F0000340A10083016C00030037006000B800D3
:100800006001B80000003700A801200004000900C2
:100810004F1478004F04780000000600881F78000D
:100820002801200004000900B81F780087866900AD
:100830000304780087047800FA7F20004200A900B2
:100840004220A90044C4DE00080465000800E0005E
:100850006C0032004200A9004220A900C4CCDE0096
:10086000890465000900E000660032000005EB0025
:100870000906540003003900FC3FB000610031005C
:10088000040037001B4020000B0656005D003900B5
:100890005C0032000004EB008004EB000005EB007C
:1008A0008005EB00F301B2000340A000F701B200A5
:1008B0000740A0008C1F78006C032000040050004B
:1008C00085805800060159008781590002003300D5
:1008D0000600310006003A00040040008580480010
:1008E0000601490087814900010037000800A00087
:1008F0000C06E9000B0032004200A9000080D20083
:100900008180D2000281D2008381D2004200A900FE
:100910000884D2008984D2000A85D2008B85D20057
:10092000E6FF37004F0678000B50A70001003700A4
:10093000060037004200A9008B85D3000A85D3004A
:100940008984D3000884D300030037000C06E90033
:100950004200A9002B0032004200AF00090037001E
:100960000080D2008180D2000281D2008381D20037
:1009700004025000858258000603590087835900FD
:10098000150039000804E80013003A008904E80063
:1009900011003A000A05E8000F003A008B05E80054
:1009A0000D003A000C06E800160032000A0037007D
:1009B0000C06E900130032000B40A70006003700C8
:1009C0004200A9000884D2008984D2000A85D2009E
:1009D0008B85D200F8FF37004466DD004200A90095
:1009E0000CF0A1000DF0A7000CF0A0000B40A1003E
:1009F0008B016E000A0178008900780008007800F9
:100A00000500370000002000010020000200200047
:100A10000300200000003700A801200004000900A6
:100A20004F1478004F04780000000600851F7800FE
:100A3000861F780003027800030378004200A900B3
:100A400044A2DE00F57F20000482620003003A0029
:100A50006000B8000001EB00130037000438B1005B
:100A6000F300B200370020004200A9000080D2004D
:100A70008180D2000281D2008381D2008703E90005
:100A8000F9FF3A0001007800820078000370A100AD
:100A90000480FD004200A9000482D30006F0A700F4
:100AA00004F0A00003016A004F037800CF02780031
:100AB00000000600851F7800C50020000300090023
:100AC000B51F78008004EB00080028004300AF0049
:100AD00083016C000000E00003003A00FAFF2700E9
:100AE0000A8560004220AE00010578008A85690011
:100AF0000103780083037800030678004220A900F0
:100B00004200A9000683D2000680FD00F60FB20065
:100B10000600E000A10032004220A9004200A90026
:100B20008783D2000780FD00F70FB2000700E000C6
:100B30009F0032004220A9004200A9000638E100CF
:100B40009C003200A30033000900A1000910A0009E
:100B50000684530007037800F10FB2000170A00073
:100B6000F30FB2000370A000870220000838E100F4
:100B7000110033004220A9004200A9008180D30067
:100B80000080D3000804E900FAFF3A000D003700A6
:100B9000870220000838E100090033004220A90044
:100BA0004200A9008381D3000281D3000804E90038
:100BB000FAFF3A000F003700020078008300780047
:100BC000430037000BF0A600110037000940A700D2
:100BD0008C0578000000EA000200320081C0EA00C3
:100BE000010037008100EA000940A7002B00370010
:100BF000070037000BF0A600050037000201EA00ED
:100C00000200320083C1EA00010037008301EA00DC
:100C1000F50FB2004220A9004200A90002004000E6
:100C200083C048004200AF000930A0000900A700BF
:100C3000090037000910A700010037000B0037003A
:100C40000BF0A700150037000930A7002900370076
:100C50000960A0001E0037000BF0A7000F0037004E
:100C60000930A70023003700190037000920A10030
:100C70000BF0A700040037008A0578000930A700B0
:100C80001C003700360037000940A00001C8B20040
:100C90000170A700CDFF37008A057800F10FB20080
:100CA000810370000A0032000170A70008003700BD
:100CB0004220A9004200A9000080D2008180D20019
:100CC0000603E9004220AF0031003700F6FF37008D
:100CD0000900A7008A0578000910A7008C05780094
:100CE0000950A6001A0037000AF0A7000080A000F3
:100CF0001B0037004200A80081C0D3000080D30051
:100D00004200AF000950A0000603E80020003200B6
:100D10000950A600080037000000E80006003A006D
:100D20008140E80004003A0081C0D3000080D30075
:100D30000603E800160032000900A7008A057800C3
:100D40000910A7008C0578004220AF001000370082
:100D50000960A7008A0578000970A7008C05780053
:100D600001017000230032000170A1000680FD0027
:100D70004220A9004200A9000683D30081006B0035
:100D800001F0A0000BF0A60001F0A100190037004F
:100D90000000200001002000160037000AF0A70024
:100DA00083016C0002007800830078001100370096
:100DB00010003700F30FB2000370A000F10FB20073
:100DC0000170A0000BF0A7000370A1000920A00093
:100DD00088FF370007045300F10FB2000170A00034
:100DE000F30FB2000370A0000910A1000900A000D9
:100DF00067FF37002501200003000900CF127800AB
:100E0000CF02780000000600851F7800C500200092
:100E100004000900B51F7800000278008102780004
:100E200083037800020378004200A9004220A90051
:100E30008180D2000180FD00F10FB2000100E000CE
:100E40004B0032004200A9004220A9008381D20059
:100E50000380FD00F30FB2000300E0004400320005
:100E60000080FB0001C0410004003100F007B10028
:100E70003F0032003E003900020037001048B00049
:100E80003B00310007856A004200A9004220A9000A
:100E9000F50FB2000570A0004200A900F70FB200E4
:100EA0000770A0000621B800062CB80083014C0092
:100EB000890078004200AF008100E8004200A900EC
:100EC000043CB80083014C0081804C00072CB80022
:100ED00081004C000000E8000100E0004220AF006B
:100EE00001003700030037000300E0004220AF009C
:100EF0000500370001F0A700030037008381D2000E
:100F00008180D2000000E900010178004200A900C0
:100F10000370A6000900370007F02F0087816100E9
:100F20000310B000600149000200E00003003A0035
:100F30000300E00001003A000000E8000080FD002E
:100F40004200A9004220A9008080D3000AF0A70037
:100F500001F0A00002F0A1000280FD0081406900C4
:100F60000380FD0003417800020078000300370091
:100F70000000200001002000000037004501200093
:100F800004000900CF127800CF02780000000600AC
:100F9000851F7800861F7800871F7800038268000D
:100FA00004F0A600060037004200A9004220A90074
:100FB00001F0A600260037004200A80024003700F8
:100FC0000102780080027800030378008203780031
:100FD0008180D2000180FD008381D2000380FD006A
:100FE00081C051000500320004F0A600180037004F
:100FF0001000200042E0B600150037008440780061
:10100000864178000170A1000370A10081C05100E9
:101010000500320004F0A6000D003700100020008B
:1010200042E0B6000A003700858053000500320018
:1010300004F0A600060037001000200042E0B600D1
:10104000030037004200A90001003700000037000C
:10105000CF0378004F037800CF027800000006002D
:10106000851F7800861F780040012000D208B40058
:10107000A4002000301A7800301A780005007800AB
:1010800086007800A2468000B34680000407020074
:1010900000000000DCA8B700F146880040002000F6
:1010A000D208B400800278004300A900150078003F
:1010B000D5007800A2468000B34680005A050200A1
:1010C0000000000004002000B41A7800B41A780070
:1010D00040002000D208B400A4002000301A78009C
:1010E000301A780080002000D208B4000002780096
:1010F00003002000B4197800B419780005017800C5
:1011000086017800C80702000000000008003900CE
:1011100040002000D208B400800278008000200047
:10112000D208B400B01A7800B01A7800190037005D
:1011300040002000D208B400A4002000301A78003B
:10114000301A7800C0002000D208B40000027800F5
:1011500003002000B4197800B41978000001780069
:10116000810178000500780086007800C807020039
:10117000000000000700390040002000D208B40041
:1011800080027800C0002000D208B400B01A7800B5
:10119000B01A780000012000D208B400A40020009A
:1011A000301A7800301A780040002000D208B400CD
:1011B0000002780003002000B4197800B419780008
:1011C0000001780081017800050078008600780031
:1011D0000407020000000000E4A8B70031478800BF
:1011E00080012000D208B400A4002000301A78004A
:1011F000301A780000002000D208B4000002780005
:1012000003002000B4197800B41978004300A80046
:101210000001780081017800D888BF00D1468000A5
:101220005A050200000000000001780081017800EA
:101230000500780086007800040702000000000026
:10124000E0A8B7001147880000002000D208B400D1
:1012500080027800848D2000B41A7800B41A7800D7
:101260004300A900DC88BF00F146800022478000CF
:10127000334780005A050200000000008002780019
:10128000010378004300A80005007800860078007C
:1012900002478000134780005A050200000000004A
:1012A0000000BE004F037800CF0278000000060067
:1012B000344680006120E10012003A000000200066
:1012C000010020004246800053468000C80702000B
:1012D000000000000100310004003A00F4FC2F007F
:1012E00044168800CC82A80003003700F4FC2F00CD
:1012F00044168800CC82A900C808F8008001F900D3
:1013000014003700344680006220E10011003A00EA
:10131000000020000100200042468000534680006B
:10132000C8070200000000000100310004003A007C
:10133000F4FC2F0044168800CCA2A800030037005C
:10134000F4FC2F0044168800CCA2A900C808F800BD
:101350008601F900000006004200F8003600F8009F
:101360003200F800801F7800200020000C000900E7
:10137000B01F7800F4FC2F00441688003E28EF00D0
:10138000CA62AF003E28EC003E08E20004003A00CA
:1013900004428000610242000442880003003700DA
:1013A000044280006100520040A8B7004088BF009E
:1013B0008001EB0000F0A7008081EB008300780043
:1013C000030178009A0202000000000054252F005B
:1013D000C5692700F6B2210047002400FE02020082
:1013E000000000008002780001037800820378008A
:1013F00003047800851F7800861F7800871F780017
:1014000005007800860078000701780088017800E0
:10141000040020000500200006002000970724009B
:101420000E04020000000000CF0378004F03780094
:10143000CF0278001605020000000000714288000B
:10144000824288004300A8004688BF0041428000D5
:1014500072428000834280005A05020000000000B2
:1014600080027800010378006480200094468800A0
:10147000A5468800B64688004E08F800D808F9004E
:101480005008F800DA08F9003008020000000000F7
:1014900056A8B700C14288001400200034468800D6
:1014A0005608F800C808F9005808F800CA08F900FA
:1014B00058090200000000008400A900A0012000DB
:1014C0000C0009004F1078004F0078003200F9003E
:1014D0003600F9004200F900004006004200F80022
:1014E0003600F8003200F800801F7800200020004D
:1014F0000C000900B01F7800F4FC2F00441688008F
:101500004228EF00CA42AF004228EC004208E20045
:1015100004003A0024428000610242002442880014
:1015200003003700244280006100520044A8B70045
:101530004488BF008001EB0000F0A7008081EB0031
:1015400083007800030178009A0202000000000086
:1015500054252F00C5692700F6B22100470024005A
:10156000FE02020000000000800278000103780003
:101570008203780003047800851F7800861F7800B6
:10158000871F780005007800860078000701780042
:1015900088017800040020000500200006002000DB
:1015A000970724000E04020000000000CF0378001B
:1015B0004F037800CF0278001605020000000000FB
:1015C00091428800A24288004300A8004A88BF00D8
:1015D0006142800092428000A34280005A050200CE
:1015E00000000000800278000103780024822000BF
:1015F00094468800A5468800B64688005208F80040
:10160000D808F9005408F800DA08F9003008020098
:10161000000000005AA8B700E14288002400200022
:10162000344688005A08F800C808F9005C08F80039
:10163000CA08F90058090200000000008680A900CD
:10164000A00120000C0009004F1078004F00780026
:101650003200F9003600F9004200F90000400600AF
:101660009400A8008200A9009680A8008220A9000A
:101670009560A800000006001221EF005400200031
:10168000740888000402280094088800E400200000
:10169000240C88008021EF00E4002000540C880016
:1016A0008621EF0000000600E4FF2F006419880087
:1016B0002223EF00F4F1210024198800040E2800F1
:1016C000041988002823EF009E0009000000000094
:1016D000000006008A08F8002803F9009E000900AF
:1016E0000000000000000600851F780000002000B8
:1016F0008A08B40080027800804AEB0000C0B30082
:1017000090429800200020008A08B40080027800EF
:10171000804AEB0000C0B30090429800CF027800EE
:1017200000000600851F7800000020008A08B40031
:1017300080027800804AEB0000C0B300904298001D
:1017400000C0B300A042980000C0B300B0429800AF
:10175000400020008A08B40080027800804AEB0034
:1017600000C0B3009042980000C0B300A0429800AF
:1017700000C0B300B0429800800020008A08B40086
:1017800080027800804AEB0000C0B30090429800CD
:1017900000C0B300A042980000C0B300B04298005F
:1017A000C00020008A08B40080027800804AEB0064
:1017B00000C0B3009042980000C0B300A04298005F
:1017C00000C0B300B0429800000120008A08B400B5
:1017D0008002780004892000B41A7800B41A7800D6
:1017E000400120008A08B40080027800C4882000EC
:1017F000B41A7800B41A7800800120008A08B40076
:101800008002780044892000B41A7800B41A780065
:10181000CF02780000000600851F7800861F780040
:101820009228EF008E28EF00A40020008444880056
:101830008C28EF008A08E20002003A000020EF0046
:10184000C00037009288BF009228EC008002780028
:10185000050078008A08B400A4448000004290008B
:10186000A4448800A4448000D4C2B2000B003A0013
:1018700014002000744488009288BF009228EC0075
:1018800080027800050078008A08B400A444800033
:1018900000429000A44488000B003700A44480005C
:1018A000B4C2B20008003A009288BF009228EC004F
:1018B00080027800050078008A08B400A444800003
:1018C00000429000A4448800A44480000303200048
:1018D000041CE1008F003C00A4448000930320001E
:1018E000041CE1008B003500A444800004C3B20056
:1018F00015003A009288BF008A08B40010427800B0
:1019000084C7B200050032009288BF008A08B40084
:101910001042780084C5B2000B003A000401200098
:10192000844488009228EC009288BF009228EC0042
:1019300080027800050078008A08B400A444800082
:1019400000429000A4448800844480006A20E100A2
:101950001C003A00A444800003032000041CE100A2
:1019600017003C00A444800093032000041CE10005
:1019700013003500644480006A20B80080027800BB
:10198000A44480000443B1000440780000E0B700A4
:101990000000FB00050040008CA8B7009288BF0043
:1019A0009228EC0080027800050078008A08B400D4
:1019B000A444800000429000A4448800E5FF370062
:1019C00054003700844480007020E10051003A0048
:1019D000A444800013062000041CE10007003E0020
:1019E000A4448000A3072000041CE1000300390088
:1019F00094C8BF00F04DB2000100370094C8BF008A
:101A000094E8B700A444800003032000041CE10014
:101A100005003C00A444800093032000041CE10066
:101A20000100350008003700A444800013042000A2
:101A3000041CE10037003C00A44480006304200043
:101A4000041CE10033003500A4448000030320009F
:101A5000041CE1000E003C00A4448000930320001D
:101A6000041CE1000A00350065448000C42ADD0042
:101A7000A44480000443B1000440780000E0B700B3
:101A80000000FB00050040008CA8B7000B003700E9
:101A900065448000C42ADD00A44480001444B100E1
:101AA0000440780000E0B7000080FB000160EF0018
:101AB0006A004000050040008CA8B7009288BF0073
:101AC0009228EC0080027800050078008A08B400B3
:101AD000A444800000429000A4448800A4448000F4
:101AE00013062000041CE10007003E00A44480000F
:101AF000A3072000041CE1000300390094C8BF00C4
:101B0000F04DB2000100370094C8BF0094E8B70060
:101B1000BCFF3700744480006120E10007003A00F8
:101B2000844480006A20E10004003A0004002000A0
:101B300063448000030052008CA8B7008C08F800B2
:101B40000000F9004F037800CF0278000000060083
:101B5000851F7800861F7800871F7800881F78000F
:101B60004088BF008001EB0000F0A7008081EB00FF
:101B700083007800030178009A0202000000000050
:101B800054252F00C5692700F6B221004700240024
:101B9000FE020200000000008002780001037800CD
:101BA0008203780003047800851F7800861F780080
:101BB000871F78004200F80081E0A90042E0EF00B2
:101BC00081E0A80005007800860078000701780011
:101BD0008801780004002000050020000600200095
:101BE000970724000E0402000000000081E0A90015
:101BF0004200F90081E0A800CF0378004F0378008D
:101C0000CF02780016050200000000007142880033
:101C1000824288004300A8004200F80081E0A90049
:101C200042E0EF0081E0A8004688BF00414280000A
:101C300072428000834280005A05020000000000CA
:101C400081E0A9004200F90081E0A800800278004C
:101C5000010378004200F80081E0A90042E0EF00B3
:101C600081E0A8006480200094468800A546880092
:101C7000B64688004E08F800D808F9005008F80069
:101C8000DA08F900300802000000000081E0A90035
:101C90004200F90081E0A80056A8B700C1428800C0
:101CA0004200F80081E0A90042E0EF0081E0A800D6
:101CB00014002000344688005608F800C808F900CF
:101CC0005808F800CA08F90058090200000000008E
:101CD00081E0A9004200F90081E0A8004488BF002B
:101CE0008001EB0000F0A7008081EB00830078000A
:101CF000030178009A0202000000000054252F0022
:101D0000C5692700F6B2210047002400FE02020048
:101D10000000000080027800010378008203780050
:101D200003047800851F7800861F7800871F7800DD
:101D30004200F80081E0A90042E0EF0081E0A80045
:101D40000500780086007800070178008801780097
:101D50000400200005002000060020009707240052
:101D60000E0402000000000081E0A9004200F9001A
:101D700081E0A800CF0378004F037800CF027800FD
:101D8000160502000000000091428800A24288006F
:101D90004300A8004200F80081E0A90042E0EF0003
:101DA00081E0A8004A88BF00614280009242800022
:101DB000A34280005A0502000000000081E0A90053
:101DC0004200F90081E0A800800278000103780059
:101DD0004200F80081E0A90042E0EF0081E0A800A5
:101DE0002482200094468800A5468800B6468800D4
:101DF0005208F800D808F9005408F800DA08F90089
:101E0000300802000000000081E0A9004200F90053
:101E100081E0A8005AA8B700E14288004200F8001B
:101E200081E0A90042E0EF0081E0A800240020004A
:101E3000344688005A08F800C808F9005C08F80021
:101E4000CA08F900580902000000000081E0A9005A
:101E50004200F90081E0A8004F047800CF03780029
:101E60004F037800CF02780000000600851F78003D
:101E700082017800820278004200A9008381D200AA
:101E80000380FD00F30FB20003003A006000B800C9
:101E90006011B800160037000338B000F207B20036
:101EA000360020000002EB004200A9000281D300AE
:101EB0008180D3000080D3004200AF000402E8001C
:101EC0000603E900F8FF3A000270A100C419DD0022
:101ED00003F0A10005F0A70003F0A0008301690052
:101EE0000101780080007800810042000000EB00D2
:101EF000CF02780000000600851F7800C500200092
:101F000007000900B51F78006033B8006044B800CE
:101F10006055B8006066B800E800200009002000A5
:101F20001000FA000C377C000884E900FDFF3B003C
:101F300003F0A600020037000460A0000960ED0075
:101F400005FF270085826100A0003200EF8161005B
:101F50000340A000C42ADE00F63F20008682520023
:101F60005A0039000004EB00460020004200A9009E
:101F70000080D2008180D2000281D2008381D20011
:101F80000603E900F9FF3A006428E1000600310089
:101F90006328E10089003A00451BDE006A30E10059
:101FA0004200AE00850037003600200086825200D5
:101FB0000804E8007A120200000000005E1202002D
:101FC000000000004200A9000080D2008180D20001
:101FD0000281D2008381D2003A1202000000000088
:101FE000260020004200A9008381D3000281D30093
:101FF0008180D3000080D3000603E900F9FF3A0096
:102000005E12020000000000460020004200A9000D
:102010008D86D3000C86D3008B85D3000A85D30030
:102020000603E900F9FF3A003A120200000000003E
:102030005E12020000000000860020004200A9009D
:102040008D86D3000C86D3008B85D3000A85D30000
:102050000603E900F9FF3A00FD0FB2003A12020050
:10206000000000005E120200000000000B05780076
:102070008C0578000D0678008006EB003A1202000D
:102080000000000068120200000000000380A700AA
:10209000BDFF37000500E00005003A000000E80041
:1020A0008100E8000201E8008301E80043003700F6
:1020B0004200A9000080D2008180D2000281D200BB
:1020C0008381D2008502E900AFFF37008582EA00F4
:1020D0008502E800F63F2000868242000004EB0003
:1020E000460020004200A9000080D2008180D2007A
:1020F0000281D2008381D2000603E900F9FF3A0091
:10210000E4824200F63F2000868252006528E1000A
:10211000330039007A120200000000005E12020053
:10212000000000004200A9000080D2008180D2009F
:102130000281D2008381D2004200A9000080D20037
:102140008180D2000281D2008381D2003A12020043
:102150000000000068120200000000004200A90018
:102160000080D2008180D2000281D2008381D2001F
:102170000804E800360020004200A9008381D30053
:102180000281D3008180D3000080D3000603E900E0
:10219000F9FF3A00E38252000390A600DBFF37000C
:1021A0004200A9008381D3000281D3008180D30043
:1021B0000080D3008502E900D4FF37008502EA00E1
:1021C000E3824200B6022000070037006000B8003A
:1021D0006011B8000004EB000003EB0002003700C0
:1021E0008502E900D60220000460A6000A0037003C
:1021F00080037800841F78002322AF00FEFF3700A1
:10220000D4022000241188004F02780007007800D3
:102210000460A1000470A1000005EB00C51CDE00F5
:102220000500E00005003200850578004200A900A5
:102230008984D3008B05E900FCFF3A000A24E10001
:10224000380039008003780000032000008044003B
:10225000841F78002322AF00FEFF370024A2B700BE
:102260004F027800070078000A00E00008003A00FA
:1022700080037800841F78002322AF00FEFF370020
:10228000E4022000241188004F0278000700780043
:102290000A05E8000500E000050032008505780029
:1022A0004200A9008984D2008B05E900FCFF3A00B6
:1022B000C51BDE0089835300C53BDD00FF81610043
:1022C000838173007A120200000000005E12020097
:1022D000000000004200A9000080D2008180D200EE
:1022E0000281D2008381D2004200A9000080D20086
:1022F0008180D2000281D2008381D2003A12020092
:102300000000000068120200000000004200A90066
:102310000080D2008180D2000281D2008381D2006D
:10232000BEFF370080037800841F78002322AF00AF
:10233000FEFF370054042000241188004F0278006B
:10234000070078000600E0000700320080037800F4
:1023500006007800841F78002322AF00FEFF3700BC
:1023600024A2B7004F0278000006EB008806780030
:10237000EA865600300039000C06E800EA8656006E
:10238000FDFF3100EA8646006A60E1000F0031007F
:1023900080037800000320000C404000841F780078
:1023A0002322AF00FEFF370024A2B7000003200065
:1023B0000D4040002322AF00FEFF370024A2B700EB
:1023C0004F02780007007800530037008005EB00CB
:1023D0006A0656008B05E8006A465600FDFF31008C
:1023E000000320006A4646008003780000032000B6
:1023F0000B404000841F78002322AF00FEFF37000F
:1024000024A2B700000320000C4040002322AF00AC
:10241000FEFF370024A2B700000320000D4040005B
:102420002322AF00FEFF370024A2B7004F0278003E
:102430000700780038003700EAC6460080037800BD
:10244000841F78002322AF00FEFF37000403200022
:1024500024118800000320000D4040002322AF001B
:10246000FEFF370024A2B7004F0278000700780073
:102470002900370000004500060039008100E8000F
:1024800004003A000201E80002003A008301E8007B
:1024900000003A0081804500030039000201E80095
:1024A00001003A008301E800020146004200AF004B
:1024B0008301E8008D81410000000600830678005A
:1024C000020678008105780000057800000006000B
:1024D0004A0798005B0798006C0798007D079800F2
:1024E0001E0578009E0590002E069000BE06900006
:1024F000000006000A0F78001B0798002C079800C0
:102500003D0798004E059000DE0590006E06900095
:10251000FE069000000006000080FA00A5012000E1
:1025200007000900CF127800CF02780000000600F3
:10253000851F7800C500200003000900B51F780042
:1025400000F0A6000C0037000000EA000480A000A4
:1025500004F0A60008003700801F7800D002200099
:102560002322AF00FEFF370024A2B7004F007800FF
:102570000480A1000860ED008002EB008003780079
:102580008404780004F0A1000404E00006003A008E
:1025900009F0A70002003700050020000F003700F7
:1025A000050020000D003700E64252000A00390005
:1025B0000003200009F0A600000220002322AF0043
:1025C000FEFF370024A2B7008502E900FBFF3B00B5
:1025D00055002000010037008402780064002000CC
:1025E0000580A7000402E80005E0A00009F0A700AC
:1025F00005F0A00008712200110009008883D800AE
:10260000441302000000000081037800883E20008F
:10261000110009008883D800441302000000000064
:102620008103780048062000110009008883D80043
:10263000441302000000000081037800A80020007D
:10264000110009008883D800441302000000000034
:102650000980A60005003700D00220002322AF0029
:10266000FEFF370024A2B7000980A100000320006C
:1026700000C04000500188002322AF00FEFF370059
:1026800024A2B70020003700060320000000E0006D
:102690000E003A0005E0A600160037000402E9002B
:1026A0000524E100020032004200AF0000000600F5
:1026B0000000E00005003A0005E0A6000D0037002C
:1026C00005F0A600060220000A00370005E0A10080
:1026D0000980A6000700370000057800D00220001E
:1026E0002322AF00FEFF370024A2B7000980A1001B
:1026F0000A007800004043002322AF00FEFF3700AD
:1027000024A2B700000006002501200003000900F4
:10271000CF127800CF027800000006000F78220068
:10272000F07F220020A0B7000000000040442400F9
:102730004005880081E0A8006004200042E7B7005F
:102740007005200042E7B70042C7A900F0832000CF
:1027500080A6B700C0F02300A4A6B7002031210056
:10276000C0A6B70000302000CCA6B700600420004F
:1027700042E7B7007005200042E7B70042C7A80053
:10278000040028000411880004402000141188006F
:102790002062A800041A2000441188005E28EF007F
:1027A0007428EF0014002000F44388008008A9007A
:1027B0008028A9002CA3EF000028EF004628EF0096
:1027C0004828EF004A28EF004C28EF004E28EF0081
:1027D0005028EF005228EF005428EF005628EF0051
:1027E0005828EF005A28EF005C28EF007628EF0009
:1027F0007828EF007A28EF007C28EF0081E0A9001C
:10280000040E20001402880081E0A80003000900E3
:102810002682BF008560A900300B02000000000086
:102820003C0B02000000000081E0A9004220EF0004
:1028300081E0A800540B0200000000008A28EF008D
:102840006A0B020000000000E4832000544488006A
:10285000740B02000000000024842000544488000F
:10286000740B0200000000006480200054448800C3
:102870008C28EF0004F02300744488009028EF00B7
:102880009228EF00D4CC2C00A4448800C4D42300A8
:10289000B4448800920B0200000000002482200053
:1028A000544488008C28EF0004F02300744488000E
:1028B0009028EF009228EF00D4CC2C00A44488008C
:1028C000C4D42300B4448800920B0200000000002E
:1028D0008228EF0001002000010078000160EF0075
:1028E00000020200000000008100E8002322AF0087
:1028F000FEFF370024A2B700500020000008E600C9
:10290000F5FF37002003A9002023A8002003AE0014
:10291000FEFF37000003F8008408F9008408E20095
:10292000020032008408F8008208F9008028AE0016
:102930007100370004862000544488000C0C02000B
:102940000000000086A8B7008008AE001A0037001B
:102950008688BF008001EB0000F0A7008081EB00BB
:1029600083007800030178009A0202000000000052
:102970004200F80081E0A90042E0EF0081E0A800F9
:10298000040020000500200006002400F7082400B1
:102990000E0402000000000081E0A9004200F900DE
:1029A00081E0A8001605020000000000B143880085
:1029B000C2438800190037008688BF008001EB0001
:1029C00000F0A7008081EB0083007800030178000D
:1029D0009A020200000000004200F80081E0A90015
:1029E00042E0EF0081E0A800040020000500200084
:1029F00006002400F70824000E0402000000000076
:102A000081E0A9004200F90081E0A800160502005B
:102A100000000000D1438800E24388007608F800F7
:102A20004608F9007808F8004808F9007A08F80024
:102A30004A08F9007C08F8004C08F900A80D0200CB
:102A4000000000008028A90042428000314280003E
:102A500000002000360F020000000000442020008B
:102A60007C0F0200000000002322AF00FEFF3700B1
:102A700004022000241188002322AF00FEFF37004B
:102A8000040220002411880062428000514280002C
:102A900000002000360F020000000000442020004B
:102AA0007C0F0200000000002322AF00FEFF370071
:102AB00004022000241188002322AF00FEFF37000B
:102AC00004022000241188008288BF000400200036
:102AD00098120200000000002322AF00FEFF370022
:102AE000D4002000241188002322AF00FEFF37000D
:102AF000A40020002411880082FF37000040FE005F
:020000040001F9
:0807F800F7F900FF7F3F00FF4D
:00000001FF
;PIC24FJ48GA002
;CRC=B614  CREATED="26-Oct-16 01:06"
